:020000040800F2
:1000000000000320110200085D0200085D020008E4
:100010005D0200085D0200085D02000800000000AB
:100020000000000000000000000000005D02000869
:100030005D020008000000005D0200085D0200088B
:100040005C0200085C0200085C0200085C02000818
:100050005C0200085C0200085C0200085C02000808
:100060005C0200085C0200085C0200085C020008F8
:100070005C0200085C0200085C0200085C020008E8
:100080005C0200085C0200085C0200085C020008D8
:100090005C0200085C0200085C0200085C020008C8
:1000A0005C0200085C0200085C0200085C020008B8
:1000B0005C0200085C0200085C0200085C020008A8
:1000C0005C0200085C0200085C0200085C02000898
:1000D0005C0200085C0200085C0200085C02000888
:1000E0005C0200085C0200085C0200085C02000878
:1000F0005C0200085C0200085C0200085C02000868
:100100005C0200085C0200085C0200085C02000857
:100110005C0200085C0200085C0200085C02000847
:100120005C0200085C0200085C0200085C02000837
:100130005C0200085C0200085C0200085C02000827
:10014000474C4B33010003004F53332D43444300CE
:080150000000000000000000A7
:10016000034613F8012B002AFBD1181A01387047F7
:1001700001F0FF01102A2BDB10F0070F08D010F858
:10018000013B013A8B422DD010F0070F42B3F6D15C
:10019000F0B441EA012141EA014122F007047FF075
:1001A00000070023F0E80256083C85EA010586EACC
:1001B000010685FA47F5A3FA87F586FA47F6A5FA08
:1001C00087F68EB9EED1F0BC01F0FF0102F0070214
:1001D00032B110F8013B013A83EA010313B1F8D1BF
:1001E0000020704701387047002D06BF35460338A0
:1001F000073815F0010F07D1013015F4807F02BFD9
:10020000013015F4C03F0130F0BC0138704700BF29
:100210000C4885460C480D490D4A002302E0D4588D
:10022000C4500433C4188C42F9D30A4A0A4C002340
:1002300001E013600432A242FBD300F05BF800F04F
:10024000D3FEFEE70000032008000020600000202D
:10025000B01C00086000002064040020FFF7FEBF0F
:100260004FF0B0431A6842F480721A601A68510560
:10027000FCD59A6822F0030242F001029A604FF026
:10028000B0439A68C2F38102012AFAD1D3F89820C8
:1002900042F00102C3F898204FF0B043D3F8982001
:1002A0009207FBD5D3F8882022F04062C3F888205B
:1002B000DA6C42F00102DA644FF09042DB6C1368B2
:1002C00023F0707343F020731360536A23F47F2389
:1002D00043F42A235362064A536843F4806353600D
:1002E00002F57052136823F007031360704700BFD4
:1002F00000040058054B4FF000629A60D3F8882044
:1003000042F47002C3F88820FFF7AABF00ED00E0B6
:1003100038B503680D46DB680446887898476B88D3
:10032000002B0CBF0223032384F8623038BD38B59C
:10033000036804460D461B6A012105F07F009847BB
:10034000236801211B6A45F080009847002384F848
:10035000633038BD70B5044616460D4661B10B1FBB
:10036000022B1DD904EB85035B6913B33246294682
:100370002046BDE870401847022380F862300368C9
:1003800080F8631080F8611090F860201B690846BF
:100390009847084B636323682846DB689847E1E782
:1003A00002F0070300EB83035B6B002BDAD0984766
:1003B000D8E770BD45040008836810B504461BB13A
:1003C000416D98470023A36010BDF8B590F86330E5
:1003D000042B04460E4632D003D8023B012B09D928
:1003E000F8BD052BFCD1002380F86330BDE8F84050
:1003F000FFF7E2BFB0F85C5090F86030816D9D422D
:1004000028BF1D460368AFB2DB693A4630469847BD
:10041000A36D2B44A365B4F85C30DA1B92B2A4F848
:100420005C20002ADCD194F86330022B03D094F8CE
:1004300060309D42D4D0042384F86330D0E7062393
:10044000FAE700000529F8B50446164609D0062942
:1004500003D0042943D11146A1E0002380F8633082
:10046000836094F86330656D012B24D0062B37D060
:1004700043B92368B4F85E209B6929463046984703
:10048000082805D031462046BDE8F840FFF74FBFA9
:1004900005F10803A365EB88A4F85C3095F900101A
:1004A000B4F85E20002929DB43B39342EAD8012344
:1004B00084F8633013E02368B4F85C209B69A16D75
:1004C00030469847B4F85C3082B29A42DAD815D0F8
:1004D0009B1AA4F85C30A36D13FA80F0A065F8BDF8
:1004E000236800229B69304611469847002384F810
:1004F00063302046BDE8F840FFF75EBFB4F85E30D9
:10050000A4F85C30636805F10807A76523BB2B7866
:1005100003F06303012B00F08180022B00F0838045
:10052000002BAFD16B78092BACD801A252F823F085
:10053000D505000885040008850400088504000826
:1005400085040008DB050008A705000885040008ED
:1005500073050008F505000804F108022946204645
:1005600098470028D3D0012806D002288AD1052335
:100570009EE794F861302B7295F90030002B46F01D
:10058000800069DAEB88B4F85C209A422ABFA4F8AC
:100590005C3003230223014684F863302046BDE823
:1005A000F840FFF712BF6A8840F2FE339A4206D144
:1005B000236838461B6B9847A4F85C00DCE7236986
:1005C000002B3FF45FAF04F15C0204F158012846B0
:1005D0009847C8E700232B81CEE723681B6898471C
:1005E000C30704D529462046FFF792FEC4E71D4BFA
:1005F000A360C1E7E368002B3FF444AFAF78204627
:100600003946984701287FF43DAF002F0CBF0323E4
:10061000042384F8617084F86230ADE76B78002BB6
:100620007FF430AFD7E76F78012F11D0032F09D0B7
:10063000002F7FF427AF236828795B6A98476F7291
:10064000287299E723681B6A01212879984793E764
:10065000236800211B6AF8E723680022DB69114642
:10066000984784E711030008036801499B6A18470B
:100670005503000810B50C4A0C4C4FF48063918868
:1006800011B18B4228BF0B46118811B18B4228BF94
:100690000B460832A242F2D100F120029A429ABFE0
:1006A000181A80B2002010BD006C0040406C004061
:1006B000294B00F0070203EB82031A8802F4C062A0
:1006C000B2F5806F10D000061A8822D502F03002F1
:1006D00052B11A8849B122F4E04222F040021204D9
:1006E000120C82F010021A80704702F4E062B2F538
:1006F000807F1A880BBF22F4405222F4E042120499
:1007000012040BBF120C120C82F0300282F0200295
:10071000E9E702F44052002AE6D01A8841B122F4F7
:10072000804222F070021204120C82F48052DAE746
:1007300002F4E062B2F5807F1A880BBF22F030022B
:1007400022F07002120412040BBF120C120C82F47D
:10075000415282F44052C6E700680040144A032127
:10076000A2F85810B2F85810C90603461AD5052148
:10077000A2F85810B2F85810090615D4B2F858105B
:10078000890613D50921A2F85810B2F8582012F0A2
:10079000400F0CBF03200420054ADB039BB2A2F8E4
:1007A000583070470120F7E70020F5E70220F3E713
:1007B00000680040024B40F08000A3F84C007047F6
:1007C000006800402DE9F041444D454E00F007031C
:1007D00001324FF6FE74884605EB830506EBC3062F
:1007E000144047B206293AD8DFE801F0040E353943
:1007F0003939330043F400732B802046FFF73AFF6A
:1008000080BB0020BDE8F08143F48063002F2B8083
:1008100003DB3E2C34D867023AE02046FFF72AFF7C
:100820000028EED00023308073802046FFF722FF9F
:100830000028E6D00023B080F3802B8823F44053B7
:100840001B041B0C83F03003002F2B80E1DA012006
:10085000D8E743F48073002F2B80DADACDE743F436
:10086000C063F8E70023B8F1060F30807380DCD056
:100870002B8823F4E0431B041B0C83F02003E3E7E5
:1008800004F11F034FF6E0741C40670107F5F847B9
:100890002046BFB2FFF7EEFE0028B2D0B8F1010F3C
:1008A000B080F78002D0B8F1060F0FD12046FFF7D5
:1008B000E1FE0028A5D0308077802B8823F030031C
:1008C0001B041B0C83F441532B80C0E72B8823F0BF
:1008D00070031B041B0C83F44053F5E700680040D1
:1008E000006C0040094A0A4B00F0070002EB80024E
:1008F00003EBC003118821F4786121F00F01490452
:10090000490C11800022C3E90022704700680040B2
:10091000006C0040538830B5148803F47C45C3F361
:1009200009038B4204F1804428BF0B46558004F52F
:10093000D84402301A460AB9184630BD218800F85A
:10094000021C012A00F10200F6D0090A023A00F85E
:10095000031C023492B2EEE738B50346254C03F08F
:100960000703084604EB83041146234A02EBC30243
:1009700023889DB203F45C53B3F5445F12D00AD8C8
:1009800005F45455B5F5005F25D0B3F5185F22D0B6
:100990004FF0FF3038BDB3F5505FF9D1238813F421
:1009A000804F13E0238844F240052B4001D0AB4236
:1009B00009D1238823F4E04323F070031B041B0CAC
:1009C00043F040032380238813F0400F18BF043204
:1009D000FFF7A0FFDEE70432FFF79CFF238823F434
:1009E000804323F070031B041B0C83F440532380CB
:1009F000D0E700BF00680040006C0040138803F19E
:100A0000804310B503F5D843518000228C1AA4B25C
:100A1000012C0BD84A08C2EBC23401EB440189B265
:100A200019B110F8121023F8121010BD845A9C52FC
:100A30000232EBE738B50346234D03F007031446B3
:100A400005EB8305214A02EBC3022B8803F4E6631E
:100A5000B3F5087F08460ED007D8202B0BD0B3F58E
:100A6000907F15D04FF0FF3038BDB3F5866F21D0A1
:100A7000B3F5C46FF6D12146FFF7C0FF2B8823F4EE
:100A8000E04323F040031B041B0C83F030030FE012
:100A90002B88590448BF04322146FFF7AFFF2B884B
:100AA00023F4E04323F070031B041B0C43F4804346
:100AB0002B8006E02B885B0658BF04322146FFF7E7
:100AC0009DFF2046D0E700BF00680040006C00405A
:100AD000024BB3F84800C0F30A00704700680040BA
:100AE000434B2DE9F0410E46B3F844108AB2CCB224
:100AF00001F00F070904054624D504F0070404217A
:100B000011FB04331A8810060FD51C8824F4E14425
:100B100024F070042404240C1C8047F080073A461B
:100B200028463346BDE8F04118471A8822F0700283
:100B30001205120D1A801B8813F4006F0CBF0521DB
:100B40000621ECE7510512D5B3F8442022F4806267
:100B50001204120C0024A3F84420A3F85040E0B281
:100B60000134FFF7BFFE082CF9D10021D7E7940527
:100B700009D5B3F8442022F400721204120CA3F831
:100B800044200121CBE7D00411D5B3F8402022F056
:100B900008021204120CA3F84020B3F8442022F4F7
:100BA00080521204120CA3F844200321B7E7110568
:100BB00010D5B3F8442022F400621204120CA3F8FA
:100BC0004420B3F8402092B242F00802A3F840203B
:100BD0000221A4E7920409D5B3F8442022F400527C
:100BE0001204120CA3F84420072198E7BDE8F08115
:100BF000006800404FF0B0439B6D5B0108D5054B8A
:100C0000B3F8583013F4004F14BF2A200A2070475D
:100C100002207047006800400A4B00F0070203EB17
:100C2000820310F0800F188806D000F030001028E2
:100C300014BF00200120704700F44050B0F5805FE1
:100C4000F6E700BF006800404FF0B0439A6D80B1F6
:100C500042F080629A659A6B42F080629A639A6B66
:100C600022F080629A630A4B4FF43E42A3F8402080
:100C7000704752010AD5064AA2F858009A6B42F012
:100C800080629A639A6D22F080629A65704700BF15
:100C900000680040214BD3F8901503F1C24370B5B2
:100CA00003F5E9131E4E851C042203F6C553CCB28E
:100CB0006340013A06FB03F34FEA1121F7D1174ACB
:100CC000174ED2F894150422CCB26340013A06FBC9
:100CD00003F34FEA1121F7D1104A114ED2F8A415AF
:100CE0000422CCB26340013A06FB03F34FEA112120
:100CF000F7D11C2223FA02F101F00F010A2934BFB7
:100D0000302437242144043A25F8021B111DF1D167
:100D100040F212330380122070BD00BF0070FF1F2D
:100D2000930100014388180A022812D0032803D037
:100D300001280CD000207047DBB2022BFAD80648FD
:100D400050F8233018780B60108001207047034B57
:100D5000F8E7034B4B20F6E7BC1B0008631C0008B8
:100D6000181C0008F8B50A4F0646FFF7F9F93C6869
:100D700023180546B3F5007F064888BFC4F5007503
:100D800020442A4631462C4400F088F93C60F8BDE6
:100D900064000020680000200A7802F06302212A23
:100DA00008B5034627D1888828BB4A78212A1CD059
:100DB000222A02D0202A10D008BD104B1A7852B92E
:100DC0004A88D20707D50E4801221A70FFF7CAFFDA
:100DD0000C48FFF7C7FF0120EEE70B4B8A681A604B
:100DE0008A899A808A7B9A71F5E7074A9A65072271
:100DF000A3F85C20EFE70020DEE700BF60000020E2
:100E0000D41900080B1A0008080000202DE9F0434F
:100E10000529F3B004467FD1036840229B6902A9EB
:100E200001209847061E1ADC434B1A68A2B1402ADB
:100E30002368424DDB6928BF4022294692B28120B7
:100E40009847011E08DD3C4E3468641A2246294446
:100E5000284600F009F9346073B0BDE8F083DFF88C
:100E60001C81DFF8E09002AD002715F8012BD8F8BF
:100E700000300A2A01D00D2A46D11BB30022304986
:100E8000304809F8032000F0D9F840B12E4B2F4A22
:100E90004FF4C07112A800F00FF912A80DE02C4910
:100EA000284800F0CBF820B92A49264800F0C6F8B7
:100EB00060B1294B294801221A70FFF753FF002324
:100EC000C8F800300137BE42CFD1ADE724491D48F4
:100ED00000F0B4F878B1204B224A1978224B00294F
:100EE00018BF13460093214A174B4FF4C07112A844
:100EF00000F0E2F8D1E71E49124800F09FF808B16F
:100F00001C48DAE71C48D8E7591CFF29D7D809F84C
:100F10000320C8F80010D5E7043901299CD8064BF6
:100F20001A680368DB69002A81D11146812073B0F9
:100F3000BDE8F043184700BF6400002068000020AF
:100F40003C1A00086C020020411A00084B1A0008E5
:100F50008A1A0008921A000861000020B51A0008D9
:100F6000CD1A0008311A0008361A0008D41A0008F1
:100F7000621B0008671B0008971B0008680200201E
:100F800038B504460D4619B1012910D0002038BDEE
:100F9000036882205B699847236881205B699847D2
:100FA000236801205B699847A5630120EFE7036888
:100FB00040221B69022128469847236840221B696A
:100FC000022181209847236808221B69032182207F
:100FD0009847044BA36323680022DB6911468120F4
:100FE0009847E2E70D0E00080E4C082284F86020B6
:100FF0000D4AC4E915227822A4F85E200B4AE2606B
:1010000008B50B4A0B4B62600B4A236001205B68FA
:1010100022619847236801209B6898472046FFF784
:1010200023FBFBE7EC0300206C030020810F00088A
:10103000990D0008A0190008250D00080A7870B560
:101040006AB970BD9A4209D10C46054614F8013FB1
:10105000002BF6D015F8016F9E42F7D001300378CF
:10106000002BEFD11846ECE7884210B501EB0204E3
:1010700002D98442234607D8431EA14208D011F862
:10108000012B03F8012FF8E7024401468A4200D100
:1010900010BD13F8014D02F8014DF7E70A449142E3
:1010A00000F1FF3300D1704710B511F8014B03F880
:1010B000014F9142F9D110BD0CB430B5174B0C1E45
:1010C0001D689DB008DA8B232B604FF0FF301DB0F8
:1010D000BDE8304002B070474FF40273ADF81430F1
:1010E00014BF04F1FF332346049307934FF6FF73B5
:1010F00002900690ADF81630209A21AB02A928463E
:10110000019300F069F8431CBCBF8B232B60002CBB
:10111000DDD0029B00221A70D9E700BF100000202A
:101120002DE9F0478E681F46BE420B6882460C468A
:1011300090462DD8B1F90C2012F4906F26D0656935
:10114000096905EB4505A3EB010905EBD5757B1C8A
:101150004B446D109D4238BF1D46530527D5294687
:1011600000F058F9064660B321694A46FFF796FF3A
:10117000A38923F4906343F08003A3812661656112
:101180004E44A5EB09052660A5603E46BE4200D947
:101190003E46206832464146FFF766FFA3689B1B28
:1011A000A3602368334423600020BDE8F0872A460B
:1011B00000F0FAF906460028E0D12169504600F017
:1011C000A9F90C23CAF80030A38943F04003A38196
:1011D0004FF0FF30E9E700002DE9F04F98468B898A
:1011E0001B069DB007460D46144610D50B6973B912
:1011F000402100F00FF92860286130B90C233B60D2
:101200004FF0FF301DB0BDE8F08F40236B6100232D
:10121000099320238DF82930CDF80C803023DFF896
:101220009C818DF82A304FF0010923469A4613F825
:10123000012B0AB1252AF9D1BAEB040B0BD05B467E
:10124000224629463846FFF76BFF013000F0A780A1
:10125000099A5A4409929AF80030002B00F09F80B6
:1012600000234FF0FF32CDE905230AF1010A049370
:1012700007938DF853301A935446052214F8011B36
:101280004E48FEF775FF049AD8B9D00644BF202314
:101290008DF85330110744BF2B238DF853309AF843
:1012A00000302A2B15D0079A544600204FF00A0C24
:1012B000214611F8013B303B092B4BD9B0B10792C5
:1012C00014E0A0EB080309FA03F313430493A246C6
:1012D000D2E7039B191D1B680391002BBBBF5B4228
:1012E00042F0020207930793B8BF049223782E2B93
:1012F0000AD163782A2B32D1039B1A1D1B680392F3
:1013000043EAE37302340593DFF8C0A02178032297
:101310005046FEF72DFF38B1049BA0EB0A00402297
:10132000824013430134049314F8011B24488DF8C0
:1013300028100622FEF71CFF002836D0214B1BBBCD
:10134000039B073323F0070308330393099B3344BC
:1013500009936AE70CFB02320C460120A8E7002340
:101360000134059319464FF00A0C204610F8012B62
:10137000303A092A03D9002BC6D00591C4E70CFBEB
:10138000012104460123F0E703AB00932A460E4BEC
:1013900004A93846AFF30080421C0646D6D1AB897B
:1013A0005B063FF52DAF09982CE703AB00932A4667
:1013B000054B04A9384600F093F9EDE7751C0008C9
:1013C0007F1C000800000000211100087B1C0008A1
:1013D00070B50F4E0C463168054611B900F0B8FAE9
:1013E00030602146284600F0B3FA431C03D14FF089
:1013F000FF34204670BDC41C24F00304A042F8D082
:10140000211A284600F0A4FA0130F2D1EFE700BF1C
:10141000500400202DE9F843CD1C25F003050835C4
:101420000C2D38BF0C25002D064601DBA94204D93E
:101430000C2333600020BDE8F883DFF8D48000F08F
:101440007BFAD8F800301C4644BB29463046FFF7EB
:10145000BFFF431C044658D1D8F800402746002F50
:1014600043D1002C4BD023683946304604EB0309A6
:1014700000F06EFA814542D121686D1A2946304646
:10148000FFF7A6FF01303AD023682B442360D8F839
:1014900000305A6862BBC8F800700FE02268521B27
:1014A00020D40B2A17D96119A342256018BF5960AF
:1014B000636808BFC8F8001062514B60304600F006
:1014C00041FA04F10B00231D20F00700C21A1CBFD3
:1014D0001B1AA350AFE76268A3420CBFC8F80020F4
:1014E0005A60EBE723466468AEE73C467F68B6E7A0
:1014F0001A465B68A342FBD100235360DEE70C234E
:101500003360304600F01EFA94E70560D6E700BF6E
:101510005404002038B50546002941D051F8043C58
:101520000C1F002BB8BFE41800F006FA1D4A136820
:1015300033B9636014602846BDE8384000F002BA51
:10154000A34208D9206821188B4201BF19685B6843
:1015500009182160EDE71A465B680BB1A342FAD97E
:1015600011685018A0420BD12068014450188342E2
:101570001160E0D118685B68536008441060DAE7D6
:1015800002D90C232B60D6E7206821188B4204BFB8
:1015900019685B68636004BF091821605460CAE77A
:1015A00038BD00BF540400202DE9F04180461546A7
:1015B0000C4621B9BDE8F0411146FFF72BBF2AB90F
:1015C000FFF7A8FF00242046BDE8F08100F0D0F925
:1015D0008542064602D8B5EB500FF4D8294640465E
:1015E000FFF718FF07460028ECD0B5422A462146EF
:1015F00028BF3246FFF752FD21464046FFF78AFFDB
:101600003C46E0E72DE9F047164698468A680B69A4
:10161000DDF820909342B8BF1346336091F8432021
:1016200007460C460AB1013333602368990642BF6E
:10163000336802333360256815F0060506D104F1DE
:10164000190AE36832689B1AAB4226DC94F84330EF
:101650002268003B18BF012392062BD404F14302F9
:1016600041463846C84701301ED02368226903F03E
:101670000603042B02BFE5683368ED1AA3680CBFAC
:1016800025EAE57500259342C4BF9B1AED18002694
:101690001A34B5421AD1002008E0012352464146CF
:1016A0003846C847013003D14FF0FF30BDE8F0871E
:1016B0000135C6E7E1185A1C302081F84300224466
:1016C00094F8451082F843100233C7E701232246FD
:1016D00041463846C8470130E6D00136D9E7000018
:1016E0002DE9FF470F7E0C9E782F914680460C46D1
:1016F0009A4601F1430207D8622F0AD8002F00F062
:10170000DD80582F00F0C38004F1420684F8427057
:101710003AE0A7F16303152BF6D801A151F823F0A5
:10172000791700088D170008091700080917000825
:1017300009170008091700088D1700080917000885
:10174000091700080917000809170008A31800085E
:101750001B1800085B180008091700080917000883
:10176000C5180008091700081B1800080917000809
:10177000091700086318000833681A1D1B683260D7
:1017800004F1420684F842300123A8E0316823685E
:10179000081D30601E0601D50D6803E05D06FBD50F
:1017A000B1F900506168002D78DA2D20002984F805
:1017B0004300A1602DDA5E486D420A231646B5FB50
:1017C000F3F103FB1157C75D06F8017D2F46BB42BD
:1017D0000D46F4D9082B0BD12368DF0708D5236900
:1017E00061689942DEBF302306F8013C06F1FF36FE
:1017F000921B2261CDF800A04B4603AA2146404629
:10180000FFF700FF01306FD14FF0FF3004B0BDE8AB
:10181000F08723F004032360CDE7216833680806CE
:1018200053F8045B02D4490648BFADB26F2F40485D
:10183000336014BF0A230823002184F8431066682C
:10184000A660002EBADB216821F004012160002D82
:10185000B4D1002EB2D11646BCE7236843F0200372
:1018600023603448782784F84570236831681F0660
:1018700051F8045B02D45F0648BFADB23160D907AE
:1018800044BF43F0200323601DB11023D4E7284850
:10189000E9E7236823F020032360F6E724480A23BE
:1018A000CDE7336825686169181D30602E061B6816
:1018B00001D5196002E06806FBD519800023236179
:1018C000164697E733681A1D32601E686268002169
:1018D0003046FEF74DFC08B1801B606063682361F1
:1018E000002384F8433085E7236932464946404661
:1018F000D047013088D023689B0714D4E068039B4D
:101900009842B8BF184681E701233246494640460F
:10191000D04701303FF478AF0135E36803995B1A93
:10192000AB42F1DCEAE7002504F11906F5E700BF58
:10193000861C0008971C0008014800F021B800BF71
:1019400058040020014800F01CB800BF58040020D3
:1019500038B5064D0023044608462B6000F012F807
:10196000431C02D12B6803B1236038BD5C04002006
:1019700051F8043C181F002BBCBF0B58C01870470F
:1019800070477047044A1168034609B9034911605A
:101990001068034413607047600400206404002052
:1019A000F50B0008490C00085D070008B5070008A2
:1019B000C5070008E508000859090008350A0008AD
:1019C000B1060008190C0008E10A0008D10A000855
:1019D000950C00080D0A47726F6B4C696E6B204FB7
:1019E0005320332E302E312D63646320E280942007
:1019F000617574686F72697A656420726573656178
:101A0000726368206F6E6C790D0A004A534F4E3A2C
:101A1000207B22636D64223A2270696E67227D7C8E
:101A20007374617475737C6564755F61636B0D0AB3
:101A300000747275650066616C73650070696E672D
:101A400000332E302E312D636463007B226F6B22B6
:101A50003A747275652C22636D64223A22706F6E3F
:101A600067222C22617069223A332C2276657273C8
:101A7000696F6E223A222573222C226E6174697678
:101A800065223A747275657D0A006564755F6163ED
:101A90006B00495F57494C4C5F5553455F4F4E4C67
:101AA000595F415554484F52495A45445F54415239
:101AB00047455453007B226F6B223A747275652C34
:101AC00022656475223A747275657D0A00737461CB
:101AD000747573007B226F6B223A747275652C22C9
:101AE00076657273696F6E223A222573222C226109
:101AF0007069223A332C22656475223A25732C22B0
:101B00007364223A66616C73652C226167656E743A
:101B1000223A226364632D7368656C6C222C226EFA
:101B20006F7465223A22503120555342204344437A
:101B3000202D2066756C6C206167656E74206E6F59
:101B400074206C696E6B656420796574222C227335
:101B50006166657479223A22737472696374227DB6
:101B60000A0068656C70007B226F6B223A74727594
:101B7000652C22636D6473223A5B2270696E672262
:101B80002C22737461747573222C226564755F61F5
:101B9000636B225D7D0A007B226F6B223A66616C6B
:101BA00073652C226572726F72223A22756E6B6EAB
:101BB0006F776E5F636D64227D0A0000141C00085D
:101BC000EA1B0008C81B00082003470072006F00D2
:101BD0006B004C0069006E006B0020004F0053004A
:101BE0002000430044004300000028035000690027
:101BF00074006300680066006F0072006B002D00C7
:101C000061006E0064002D0054006F0072006300DC
:101C1000680000000403090409024B00020100C02F
:101C200032080B0002020200000904000001020257
:101C30000000052400100105240100010424020015
:101C40000524060001070582030800FF09040100BE
:101C5000020A000000070501024000010705810299
:101C600040000112010002EF020108830440570105
:101C7000030102FE01232D302B2000686C4C00650F
:101C800066674546470030313233343536373839A8
:101C900041424344454600303132333435363738DB
:081CA0003961626364656600AE
:081CA800B8E4FF7F0100000019
:101CB0000084030000000800140000200000000061
:101CC0000000000068000000D000000000000000DC
:101CD0000000000000000000000000000000000004
:101CE00000000000000000000000000000000000F4
:101CF00000000000000000000000000000000000E4
:081D00000000000000000000DB
:0400000508000211DC
:00000001FF
