:020000040800F2
:100000000000032095010008E1010008E10100085B
:10001000E1010008E1010008E10100080000000022
:10002000000000000000000000000000E1010008E6
:10003000E101000800000000E1010008E101000802
:10004000E0010008E0010008E0010008E00100080C
:10005000E0010008E0010008E0010008E0010008FC
:10006000E0010008E0010008E0010008E0010008EC
:10007000E0010008E0010008E0010008E0010008DC
:10008000E0010008E0010008E0010008E0010008CC
:10009000E0010008E0010008E0010008E0010008BC
:1000A000E0010008E0010008E0010008E0010008AC
:1000B000E0010008E0010008E0010008E00100089C
:1000C000E0010008E0010008E0010008E00100088C
:1000D000E0010008E0010008E0010008E00100087C
:1000E000E0010008E0010008E0010008E00100086C
:1000F000E0010008E0010008E0010008E00100085C
:10010000E0010008E0010008E0010008E00100084B
:10011000E0010008E0010008E0010008E00100083B
:10012000E0010008E0010008E0010008E00100082B
:10013000E0010008E0010008E0010008E00100081B
:10014000474C4B3300000300000000084F53332D91
:100150004252494E475550000000000047726F6BF5
:100160004C696E6B204F5320332E302E3000000030
:1001700000000000000000000000000047524F4B4C
:100180004C494E4B5F4F535F4446555F563300001A
:04019000000000006B
:100194000C4885460C480D490D4A002302E0D4580A
:1001A400C4500433C4188C42F9D30A4A0A4C0023BD
:1001B40001E013600432A242FBD300F011F800F016
:1001C4002FF8FEE7000003200800002008000020AC
:1001D400040300080800002008000020FFF7FEBF09
:1001E4004FF0E0230C4AC3F8082DD3F8882D42F4CD
:1001F4007002C3F8882D094A136823F00F0343F0F3
:10020400010313604FF0B0431A6842F001021A6010
:100214001A689207FCD57047000000080040005897
:100224004FF0B04373B5DA6C42F00702DA64DB6C6A
:100234000193019B4FF090431025D3F8002822F43A
:10024400407242F48072C3F80028D3F8042822F0E4
:100254001002C3F804281A6822F00C0242F00402C7
:100264001A605A6822F002025A6002214FF4801088
:100274004FF40034094AC3F8185899611646013AF4
:100284004EB9064AC3F818089C611646013A002E76
:10029400F0D000BFF9E700BFF0E700BF801A060006
:1002A40047524F4B4C494E4B5F4F535F4446555F4B
:1002B40056330047726F6B4C696E6B204F5320337B
:1002C4002E302E302D6272696E67757020E2809434
:1002D400206E61746976652053544D33325742352C
:1002E40035206272696E672D757020286E6F7420D8
:1002F40066756C6C2073657276696365732900009A
:040000050800019559
:00000001FF
